:020000040800F2
:10000000A069002045010008B9790008A15A00083C
:10001000B5790008BD060008ED8900080000000061
:10002000000000000000000000000000497C000803
:100030006107000800000000DD7A0008A17C0008CC
:100040005F0100085F0100085F0100085F01000810
:100050005F0100085F010008650E0008A50E00089A
:10006000B10E0008BD0E0008C90E00085F010008AF
:100070005F0100085F0100085F0100085F010008E0
:100080005F0100085F0100085F010008CD890008DA
:10009000DD8900085F0100085F010008D50E000837
:1000A000757D0008957D0008857D00085F010008CA
:1000B0005F0100085F0100085F010008A55A000801
:1000C0005F0100085F0100085F0100085F01000890
:1000D0005F0100089D890008AD890008BD890008FE
:1000E000710E00085F0100085F010008D57D00085F
:1000F0000D7E0008F17D00085F0100085F01000827
:100100005F0100085F010008A57D00085F0100088D
:10011000C9840008D9840008B57D0008C57D0008A1
:100120005F0100085F0100085F0100085F0100082F
:10013000DFF80CD000F09AFA0048004779950008E3
:10014000A06900200648804706480047FEE7FEE712
:10015000FEE7FEE7FEE7FEE7FEE7FEE7FEE7FEE777
:10016000157D000831010008D2B201E000F8012B32
:10017000491EFBD270470022F6E710B513460A4627
:1001800004461946FFF7F0FF204610BDF0B480EAA0
:100190000102D40F4200B2EB410F02D202460846E0
:1001A00011464A0042D0C30DDDB2C1F3C752AD1AA9
:1001B000202D35DAC1F3160141F4000204B1524298
:1001C000C5F1200602FA06F12A411044B3EBD05FD4
:1001D00023D0C4B1012DA0EBC35009DCF0BC4FF01B
:1001E000004202EAC352DBB200F5000000F0B2B9EF
:1001F000400000F1807000EBC350A0F1807040EA35
:10020000D170490009E0490841EAC071A0EBC35030
:1002100000F50000400800EBC350F0BC00F091B9BD
:100220006142012202EB4101001BF6E7F0BC70477E
:1002300081F00041AAE780F00040A7E780EA0102D0
:1002400010B502F00043400022D04A001FD0010E3A
:1002500001EB1261C0F35600C2F3560240F40000F5
:1002600042F40002A0FB022000047F39140400D0F5
:10027000401C50EA124001D44000491EC2B20C0694
:1002800004EBD010401C4008802A02D003E000207C
:1002900010BD20F00100002900DA0020184310BD35
:1002A00030B480EA010202F0004530F0004221F053
:1002B000004013D090B1C30DD40DC2F31601C0F3AA
:1002C0001600E41A41F4000140F400027D3491422A
:1002D00001D3641C00E04900002C02DA30BC00208D
:1002E00070474FF400000023914201D3891A034361
:1002F00040084FEA4101F7D151B1914202D14FF08C
:10030000004105E002D24FF0010101E06FF0010170
:1003100003EBC450284430BC00F013B92DE9FE4F64
:1003200081EA030404F0004421F0004100944FF0FE
:10033000000B23F0004350EA01045ED052EA0304AC
:100340005BD0C3F30A54C1F30A552C44A4F2F3342E
:100350000194A0FB0254C1F3130141F48011C3F3D3
:10036000130343F4801301FB024400FB034E840A91
:10037000970A44EA815447EA8357A4FB0768029529
:100380008D0A05FB07854FEA932C04FB0C542705C7
:10039000029D4FEA065847EA1637B5EB08056EEBA3
:1003A000070C870E920E47EA811742EA8312A7FBD9
:1003B0000201B6EB0B0164EB00042B0D43EA0C3396
:1003C0005E1844EB1C50DA465146E7FB0201C5F3C8
:1003D00013044FEA0B3343EA14534FEA0432019CEF
:1003E00043EA0603A4F10C040294009CCDE900B496
:1003F00000F0EDF803B0BDE8F08F00200146F9E70A
:10040000002801DBC0F10040002901DBC1F10041FF
:10041000814201D80120704700207047002801DB8D
:10042000C0F10040002901DBC1F10041814201D24D
:100430000120704700207047002801DBC0F1004018
:10044000002901DBC1F10041814201D30120704745
:1004500000207047002801DBC0F10040002901DBCB
:10046000C1F10041814201D901207047002070474D
:10047000C10F80EAE0700844CA079623002100F00B
:1004800069B896230022114600F064B800F00042DB
:1004900020F00040C10DC0F3160040F400007F2999
:1004A00001DA00207047962903DCC1F19601C840AB
:1004B00001E096398840002AF4D04042704770B578
:1004C000C1F30A5201F000450024C1F3130140F2C8
:1004D000FF3341F480119A4201DA002070BD40F2EE
:1004E00033439A42A2F2334203DC524200F019F83D
:1004F00000E090402C43F1D0404270BD00F000423B
:1005000030F000400AD0C10D01F56071C0F3160053
:1005100042EA0151C20840071143704700200146DA
:100520007047202A04DB203A21FA02F000217047AC
:1005300021FA02F3D040C2F120029140084319464B
:1005400070470029A8BF7047401C490008BF20F031
:100550000100704710B4B0FA80FC00FA0CF050EAC9
:10056000010404BF10BC704749B1CCF1200421FA4A
:1005700004F411FA0CF118BF012121430843A3EB45
:100580000C01CB1D4FEA00614FEA102042BF002052
:1005900010BC704700EBC35010440029A4BF10BC2E
:1005A0007047401C490008BF20F0010010BC704794
:1005B00010B5141E73F1000408DA401C41F100016B
:1005C00092185B411A4301D120F0010010BD2DE9C2
:1005D000F04D92469B4611B1B1FA81F202E0B0FAB9
:1005E00080F22032904600F059F804460F4640EA67
:1005F0000A0041EA0B0153465A46084313D01146FC
:1006000053EA010019D0C8F140025046FFF789FFB4
:1006100005460E4650465946424600F03FF808430C
:1006200005D0012004E020463946BDE8F08D0020C9
:10063000054346EAE0762C4337430A986305E40A0B
:10064000A0EB08000022FD0A44EA47540A3002D514
:1006500000200146E9E7010510196941DDE9084577
:1006600000196941BDE8F04DA2E700001CB509483A
:100670000090094801900546009C06E0E06840F0C3
:10068000010394E8070098471034AC42F6D3FFF713
:1006900053FD0000200F0108400F0108202A04DB51
:1006A000203A00FA02F1002070479140C2F1200385
:1006B00020FA03F31943904070470000FFE7FEE77C
:1006C00040F28810C2F20000006840F2B851C0F257
:1006D000010188423CD0FFE740F28810C2F20000DE
:1006E00000684EF63041C0F20101884230D0FFE789
:1006F00040F28810C2F2000000684DF2A821C0F25A
:100700000201884224D0FFE740F28810C2F20000C4
:1007100000684BF62011C0F20301884218D0FFE7B1
:1007200040F28810C2F20000006849F69871C0F2E9
:10073000040188420CD0FFE740F28810C2F20000AA
:10074000006848F21061C0F20501884207D1FFE756
:1007500041F62011C2F2000163208877FFE770475D
:100760007047000080B501F027FD80BD80B582B0E4
:1007700001208DF80600FFE79DF8060068B1FFE74D
:1007800041F2B840C2F200000DF1070101231A4600
:1007900003F0CCF98DF80600EEE79DF8070002B0F3
:1007A00080BD000080B582B08DF8070001208DF873
:1007B0000600FFE79DF8060068B1FFE741F2B84088
:1007C000C2F200000DF1070101231A4603F0CCFA32
:1007D0008DF80600EEE702B080BD000080B582B063
:1007E000ADF8060001208DF803009DF807008DF894
:1007F00004009DF806008DF80500FFE79DF8030052
:1008000060B1FFE741F2B840C2F2000001A9022244
:10081000012303F0A9FA8DF80300EFE702B080BDD1
:1008200080B586B08DF8150004918DF80F209DF8E5
:100830001500262100F0E6F8ADF80C00BDF80C001C
:1008400020B9FFE70020ADF81600B7E0BDF80C00B6
:1008500040F2B551884205DBFFE740F2B450ADF8F5
:100860000C00FFE7BDF80C009DF80F10884205DB77
:10087000FFE79DF80F00ADF80C00FFE79DF81500AD
:10088000282100F0BFF86FF3DF20ADF80A00002048
:1008900000F052FABDF80A00FFF7A0FF9DF815001E
:1008A00040011830C0B2FFF77DFFBDF80A00BDF867
:1008B0000C100844B0F5006F1ADAFFE70020ADF81D
:1008C0000800FFE7BDF80800BDF80C1088420EDAFA
:1008D000FFE7FFF74BFF049908700498013004907C
:1008E000FFE7BDF808000130ADF80800EAE746E090
:1008F000BDF80A00C0F50060ADF80A000020ADF8B0
:100900000800FFE7BDF80800BDF80A1088420EDABB
:10091000FFE7FFF72BFF049908700498013004905B
:10092000FFE7BDF808000130ADF80800EAE7012054
:1009300000F002FA0020019000F0FEF90198FFF7A4
:100940004DFF9DF8150040011830C0B2FFF72AFF97
:10095000FFE7BDF80800BDF80C1088420EDAFFE78B
:10096000FFF704FF04990870049801300490FFE732
:10097000BDF808000130ADF80800EAE7FFE7012004
:10098000009000F0D9F9BDF80A00BDF80C10084439
:100990006FF3DF20ADF80A009DF81500BDF80A20BE
:1009A000282100F077F900999DF81500402200F009
:1009B00051F9BDF80C00ADF81600FFE7BDF81600C0
:1009C00006B080BD80B582B08DF80700ADF8041088
:1009D000002000F0B1F9BDF80400FFF7FFFE9DF81C
:1009E000070040010930C0B2FFF7DCFEFFF7BEFE92
:1009F0008DF80300012000F09FF99DF8030002B07C
:100A000080BD000080B582B08DF80700ADF80410FD
:100A1000002000F091F9BDF80400FFF7DFFE9DF81B
:100A2000070040010A30C0B2FFF7BCFEFFF79EFE90
:100A30000002ADF80200FFF799FE0146BDF8020082
:100A40000843ADF80200012000F076F9BDF802007D
:100A500002B080BD84B08DF80F00ADF80C1002928A
:100A6000ADF806309DF80F00C0EB001140F2E00039
:100A7000C2F200000844153000909DF80D00009966
:100A800008709DF80C000099487002980078009951
:100A90008870029840780099C87002988078009910
:100AA00008710298C078009948719DF80700009974
:100AB00088719DF806000099C8710099012088731B
:100AC00004B0704780B588B08DF81F000691ADF86E
:100AD00016209DF81F000021FFF774FF00F00F00A3
:100AE000222816D0FFE79DF81F0040F2E001C2F275
:100AF0000001029101F11D020C2100F0EBF80299B6
:100B00009DF81F00B1F821104ABA102100F0C2F878
:100B1000FFE79DF81F002421FFF774FFADF81200D6
:100B2000ADF81000BDF812006FF3DF20ADF8120031
:100B3000002000F001F9BDF81200FFF74FFE9DF80C
:100B40001F0040011430C0B2FFF72CFEBDF81200A8
:100B5000BDF816100844B0F5006F19DAFFE7002061
:100B6000ADF81400FFE7BDF81400BDF81610884278
:100B70000DDAFFE70698411C06910078FFF712FE98
:100B8000FFE7BDF814000130ADF81400EBE744E0D6
:100B9000BDF81200C0F50060ADF80E000020ADF801
:100BA0001400FFE7BDF81400BDF80E1088420DDAFE
:100BB000FFE70698411C06910078FFF7F3FDFFE779
:100BC000BDF814000130ADF81400EBE7012000F08F
:100BD000B3F80020019000F0AFF80198FFF7FEFD98
:100BE0009DF81F0040011430C0B2FFF7DBFDFFE7A6
:100BF000BDF81400BDF8161088420DDAFFE706981C
:100C0000411C06910078FFF7CDFDFFE7BDF8140009
:100C10000130ADF81400EBE7FFE70120009000F091
:100C20008BF8BDF81610BDF810000844ADF81000A0
:100C30009DF81F00BDF81020242100F02BF800992A
:100C40009DF81F00202200F005F8BDF8160008B03E
:100C500080BD000080B582B08DF80700ADF80410AB
:100C60008DF80320002000F067F8BDF80400FFF7BE
:100C7000B5FD9DF8070040010D30C0B2FFF792FDB1
:100C80009DF80300FFF78EFD012000F055F802B03B
:100C900080BD000080B582B08DF80700ADF804106B
:100CA000ADF80220002000F047F8BDF80400FFF77F
:100CB00095FD9DF8070040010E30C0B2FFF772FDB0
:100CC000BDF80200FFF78AFD012000F035F802B000
:100CD00080BD000080B582B08DF80700ADF804102B
:100CE0000092002000F028F8BDF80400FFF776FD20
:100CF0009DF8070040010F30C0B2FFF753FD009888
:100D0000411C00910078FFF74DFD0098411C0091B7
:100D10000078FFF747FD0098411C00910078FFF72D
:100D200041FD0098411C00910078FFF73BFD012038
:100D300000F002F802B080BD80B582B08DF80700E7
:100D40009DF8070050B9FFE740F60040C4F20100EB
:100D50004FF48051002201F017FA0FE09DF80700D0
:100D600001280AD1FFE740F60040C4F201004FF429
:100D70008051012201F008FAFFE7FFE702B080BDD1
:100D800080B582B08DF807009DF8070048B9FFE7ED
:100D900040F60040C4F201000221002201F0F4F903
:100DA0000EE09DF80700012809D1FFE740F600405A
:100DB000C4F201000221012201F0E6F9FFE7FFE79A
:100DC00002B080BD81B040F2E000C2F2000003300A
:100DD000009040F6C440C0F601000178009A1170FE
:100DE0004178009A51708178009A9170C07800998A
:100DF000C87040F6D240C0F601000178009A117127
:100E00004178009A51718178009A9171C078009967
:100E1000C87140F6CC40C0F601000178009A11720A
:100E20004178009A51728178009A9172C178009A43
:100E3000D1720179009A117340790099487340F694
:100E4000C840C0F601000178009A91734178009A79
:100E5000D1738178009A1174C0780099487401B0F8
:100E60007047000080B5012000F0ACFF80BD00009D
:100E700080B54FF4806000F0A5FF4FF4006000F0F3
:100E8000A1FF4FF4805000F09DFF4FF4005000F0A0
:100E900099FF4FF4804000F095FF4FF4004000F0C0
:100EA00091FF80BD80B5022000F08CFF80BD000066
:100EB00080B5042000F086FF80BD000080B50820CA
:100EC00000F080FF80BD000080B5102000F07AFFA8
:100ED00080BD000080B5202000F074FF402000F0AD
:100EE00071FF802000F06EFF4FF4807000F06AFF09
:100EF0004FF4007000F066FF80BD000070470000F6
:100F000081B0009001B0704786B0049003910292C6
:100F10000193049890F820008DF803009DF80300D9
:100F2000012806D0FFE79DF80300022840F0D78093
:100F3000FFE7039880B9FFE704980068C06880075E
:100F400048B9FFE70499486A40F40010486201205C
:100F50008DF81700CCE00FE0049800680069800766
:100F600048B9FFE70499486A40F40010486201203C
:100F70008DF81700BCE0FFE704980068039900EBC8
:100F80000110D0F8B00100F00400029988600298C6
:100F9000806858B9FFE704980068039900EB0110D6
:100FA000D0F8B001400D029908600AE0049800688A
:100FB000039900EB0110D0F8B001C0080299486015
:100FC000FFE704980068039900EB0110D0F8B00126
:100FD000C0F340000299C86004980068039900EBD0
:100FE0000110D0F8B40100F00F00029908610498D4
:100FF0000068039900EB0110D0F8B40180B2000A38
:101000000299886104980068039900EB0110D0F8F8
:10101000B401000C0299486104980068039900EB40
:101020000110D0F8B801019908700498006803997C
:1010300000EB0110D0F8B801000A0199487004983B
:101040000068039900EB0110D0F8B801000C019979
:10105000887004980068039900EB0110D0F8B8017B
:10106000000E0199C87004980068039900EB011004
:10107000D0F8BC010199087104980068039900EB4D
:101080000110D0F8BC01000A019948710498006869
:10109000039900EB0110D0F8BC01000C0199887194
:1010A00004980068039900EB0110D0F8BC01000E11
:1010B0000199C871039838B9FFE704980168C868B6
:1010C00040F02000C86006E004980168086940F01C
:1010D00020000861FFE700208DF8170008E0049960
:1010E000486A40F48020486201208DF81700FFE72D
:1010F0009DF8170006B0704780B58AB009900020AF
:10110000089009980068406907900998006840684D
:101110000690099800688068059009980068C06882
:101120000490099800680069039009980068806934
:1011300002909DF81C00C007002800F09480FFE793
:101140009DF81400C00758B3FFE709980168012013
:1011500088609DF814008007002804D5FFE70998EF
:1011600000F04EFB1BE09DF814004007002805D559
:10117000FFE7089840F4006008900FE09DF8140025
:101180000007002805D5FFE7089840F48050089034
:1011900003E0099800F030FBFFE7FFE7FFE7FFE718
:1011A0009DF81500C00760B3FFE7099801684FF488
:1011B000807088609DF815008007002804D5FFE73F
:1011C000099800F025FB1BE09DF81500400700285A
:1011D00005D5FFE7089840F4005008900FE09DF80F
:1011E00015000007002805D5FFE7089840F4804067
:1011F000089003E0099800F007FBFFE7FFE7FFE72F
:10120000FFE79DF81600C00760B3FFE70998016883
:101210004FF4803088609DF816008007002804D5C0
:10122000FFE7099800F0FCFA1BE09DF81600400764
:10123000002805D5FFE7089840F4004008900FE02B
:101240009DF816000007002805D5FFE7089840F430
:101250008030089003E0099800F0DEFAFFE7FFE72E
:10126000FFE7FFE7FFE79DF81C000007002810D507
:10127000FFE79DF81000C006002809D5FFE7089891
:1012800040F400700890099801681020C860FFE7DA
:10129000FFE79DF81C00400700280FD5FFE79DF8E9
:1012A00010000007002808D5FFE70998016808200A
:1012B000C860099800F07EFAFFE7FFE79DF81C0080
:1012C000800700280BD5FFE709980068C0688007F1
:1012D00020B1FFE7099800F071FAFFE7FFE79DF8FA
:1012E0001C004006002810D5FFE79DF80C00C00642
:1012F000002809D5FFE7089840F480600890099815
:10130000016810200861FFE7FFE79DF81C008006D8
:1013100000280FD5FFE79DF80C000007002808D52E
:10132000FFE70998016808200861099800F04AFA67
:10133000FFE7FFE79DF81C00C00600280BD5FFE77C
:10134000099800680069800720B1FFE7099800F05C
:101350003DFAFFE7FFE79DF81E00800700280FD544
:10136000FFE79DF81800C006002808D5FFE7099898
:10137000016810204860099800F03AFAFFE7FFE79B
:101380009DF81E00C00778B1FFE79DF81800000720
:10139000002808D5FFE709980168082048600998E7
:1013A00000F042FAFFE7FFE79DF81D000006002865
:1013B00040F18D80FFE79DF818004007002840F1BC
:1013C0008180FFE79DF81D00C00750B1FFE79DF841
:1013D0000800C00728B1FFE7089840F00100089016
:1013E000FFE79DF81D00800700280BD5FFE79DF85B
:1013F00008008007002805D5FFE7089840F00200A4
:101400000890FFE79DF81D00400700280BD5FFE777
:101410009DF808004007002805D5FFE7089840F030
:1014200004000890FFE79DF81D000007002848D53C
:10143000FFE79DF8080010F0700F42D0FFE7029818
:1014400000F0700001460191102814D0FFE70198C8
:10145000202815D0FFE70198302816D0FFE7019823
:10146000402817D0FFE70198502818D0FFE70198CF
:10147000602819D01DE0089840F00800089019E095
:10148000089840F01000089014E0089840F0200000
:1014900008900FE0089840F0400008900AE0089893
:1014A00040F08000089005E0089840F480700890B3
:1014B00000E0FFE709980168886920F07000886102
:1014C000FFE7FFE70998016804204860FFE70898F4
:1014D00048B1FFE7089A0999486A10434862099899
:1014E000FFF70EFDFFE70AB080BD000080B584B0B5
:1014F0000290029820B9FFE701208DF80F00E0E08C
:10150000029890F8200020B9FFE7029800F0DEF87A
:10151000FFE702980168086820F00200086000F008
:101520004BFE0190FFE702980068406880070028A2
:1015300015D5FFE700F040FE0199401A0B280DD3A6
:10154000FFE70299486A40F400304862029905209A
:1015500081F8200001208DF80F00B2E0E3E7029847
:101560000168086840F00100086000F025FE019065
:10157000FFE7029800684068C007A8B9FFE700F0DD
:101580001BFE0199401A0B280DD3FFE70299486A08
:1015900040F4003048620299052081F820000120C3
:1015A0008DF80F008DE0E4E70298007E012807D156
:1015B000FFE702980168086840F08000086006E0D4
:1015C00002980168086820F080000860FFE7029830
:1015D000407E012807D1FFE702980168086840F0C3
:1015E0004000086006E002980168086820F04000AA
:1015F0000860FFE70298807E012807D1FFE7029884
:101600000168086840F02000086006E00298016860
:10161000086820F020000860FFE70298C07E0128DB
:1016200007D1FFE702980168086820F01000086001
:1016300006E002980168086840F010000860FFE7C3
:101640000298007F012807D1FFE702980168086827
:1016500040F00800086006E002980168086820F081
:1016600008000860FFE70298407F012807D1FFE7E4
:1016700002980168086840F00400086006E00298DB
:101680000168086820F004000860FFE7029B196801
:101690005A689868D3F80CC040EA0C00D3F810C020
:1016A00040EA0C005B691843013A1043C861029993
:1016B00000204862029A012182F820108DF80F0064
:1016C000FFE79DF80F0004B080BD000080B58EB02C
:1016D0000D9000200C900B900A9009900D980068D6
:1016E00046F20041C4F20001884261D1FFE7FFE702
:1016F00041F21C00C4F20200016841F00071016077
:10170000006800F0007008900898FFE7FFE741F2DA
:101710001800C4F20200016841F00801016000688D
:1017200000F0080007900798FFE74FF480700990D9
:1017300000200A900B9040F60040C4F20100049093
:1017400009A9059100F05AFB049805994FF400721D
:10175000099202220A9203220C9200F04FFBFFE74B
:101760000421C4F2010108680690069820F4C040E4
:101770000690069840F0E0600690069840F480409D
:10178000069006980860FFE713200190002202925D
:10179000114601F0EFFB019801F0E2FB029A1420E0
:1017A0000390114601F0E6FB039801F0D9FBFFE737
:1017B0000EB080BD81B0009001B0704781B0009044
:1017C00001B0704781B0009001B0704780B582B021
:1017D00001900198006846F20041C4F2000188427D
:1017E00004D1FFE701980BF0CFFAFFE702B080BD0C
:1017F00081B0009001B0704781B0009001B0704797
:1018000081B0009001B0704781B0009001B0704786
:1018100081B0009001B0704781B0009001B0704776
:1018200081B0009001B0704781B0009001B0704766
:1018300080B596B0159000208DF85300159890F85B
:101840002100022807D0FFE71599042088630120B2
:101850008DF8530074E115980168086820F00E00B7
:10186000086015980168086820F001000860159864
:1018700000688121C4F202018842C0F0A880FFE71D
:10188000159800680821C4F20201884203D1FFE7DD
:101890000120139094E0159800681C21C4F2020105
:1018A000884203D1FFE71020129086E01598006867
:1018B0003021C4F20201884204D1FFE74FF4807066
:1018C000119077E0159800684421C4F20201884223
:1018D00004D1FFE74FF48050109068E0159800683D
:1018E0005821C4F20201884204D1FFE74FF480304E
:1018F0000F9059E0159800686C21C4F202018842EB
:1019000004D1FFE74FF480100E904AE0159800686C
:101910008021C4F20201884204D1FFE74FF08070B9
:101920000D903BE01598006840F20841C4F20201B6
:10193000884203D1FFE701200C902CE01598006845
:1019400040F21C41C4F20201884203D1FFE710209B
:101950000B901DE01598006840F23041C4F202017E
:10196000884204D1FFE74FF480700A900DE015988B
:10197000016840F24442C4F202024FF480309142C6
:1019800008BF4FF480500A90FFE70A980B90FFE7DA
:101990000B980C90FFE70C980D90FFE70D980E90B8
:1019A000FFE70E980F90FFE70F981090FFE7109851
:1019B0001190FFE711981290FFE712981390FFE73C
:1019C000139840F20441C4F202010860A5E01598A2
:1019D00000680821C4F20201884203D1FFE7012018
:1019E000099094E0159800681C21C4F20201884215
:1019F00003D1FFE71020089086E015980068302199
:101A0000C4F20201884204D1FFE74FF480700790CE
:101A100077E0159800684421C4F20201884204D19D
:101A2000FFE74FF48050069068E015980068582151
:101A3000C4F20201884204D1FFE74FF480300590E0
:101A400059E0159800686C21C4F20201884204D163
:101A5000FFE74FF4801004904AE015980068802159
:101A6000C4F20201884204D1FFE74FF08070039076
:101A70003BE01598006840F20841C4F20201884238
:101A800003D1FFE7012002902CE01598006840F296
:101A90001C41C4F20201884203D1FFE710200190EB
:101AA0001DE01598006840F23041C4F202018842FE
:101AB00004D1FFE74FF4807000900DE015980168A5
:101AC00040F24442C4F202024FF48030914208BF17
:101AD0004FF480500090FFE700980190FFE70198D5
:101AE0000290FFE702980390FFE703980490FFE756
:101AF00004980590FFE705980690FFE70698079081
:101B0000FFE707980890FFE708980990FFE7099812
:101B10000421C4F202010860FFE71599012081F851
:101B20002100FFE71599002081F82000FFE71598B4
:101B3000406B20B1FFE71598416B8847FFE7FFE74F
:101B40009DF8530016B080BD80B582B0ADF8060098
:101B5000BDF8060001280DD1FFE7BDF8061041F2DF
:101B60000040C4F2010000F0F7FA014600200CF03A
:101B700013FC24E1BDF8060002280DD1FFE7BDF8F3
:101B8000061041F20040C4F2010000F0E5FA0146FF
:101B900001200CF001FC11E1BDF8060004280DD174
:101BA000FFE7BDF8061042F20000C4F2010000F0A9
:101BB000D3FA014602200CF0EFFBFEE0BDF8060070
:101BC00008280DD1FFE7BDF8061041F20040C4F22D
:101BD000010000F0C1FA014603200CF0DDFBEBE050
:101BE000BDF8060010280DD1FFE7BDF8061041F240
:101BF0000040C4F2010000F0AFFA014604200CF0EE
:101C0000CBFBD8E0BDF8060020280DD1FFE7BDF8DA
:101C1000061041F20040C4F2010000F09DFA0146B6
:101C200005200CF0B9FBC5E0BDF8060040280DD139
:101C3000FFE7BDF8061041F20040C4F2010000F0D9
:101C40008BFA014606200CF0A7FBB2E0BDF80600B7
:101C500080280DD1FFE7BDF8061041F20040C4F224
:101C6000010000F079FA014607200CF095FB9FE097
:101C7000BDF80600B0F5807F0DD1FFE7BDF8061076
:101C800040F60000C4F2010000F066FA01460820A8
:101C90000CF082FB8BE0BDF80600B0F5007F0DD1A3
:101CA000FFE7BDF8061042F20000C4F2010000F0A8
:101CB00053FA014609200CF06FFB77E0BDF80600EF
:101CC000B0F5806F0DD1FFE7BDF8061042F20000BD
:101CD000C4F2010000F040FA01460A200CF05CFB5F
:101CE00063E0BDF80600B0F5006F0DD1FFE7BDF869
:101CF000061042F20000C4F2010000F02DFA014685
:101D00000B200CF049FB4FE0BDF80600B0F5805FFA
:101D10000DD1FFE7BDF8061042F20000C4F2010049
:101D200000F01AFA01460C200CF036FB3BE0BDF83F
:101D30000600B0F5005F0DD1FFE7BDF8061042F2D6
:101D40000000C4F2010000F007FA01460D200CF07B
:101D500023FB27E0BDF80600B0F5804F0DD1FFE76B
:101D6000BDF8061042F20000C4F2010000F0F4F9E0
:101D700001460E200CF010FB13E0BDF80600B0F594
:101D8000004F0DD1FFE7BDF8061042F20000C4F28B
:101D9000010000F0E1F901460F200CF0FDFAFFE729
:101DA000FFE7FFE7FFE7FFE7FFE7FFE7FFE7FFE703
:101DB000FFE7FFE7FFE7FFE7FFE7FFE7FFE702B027
:101DC00080BD000080B582B0ADF8060040F214403E
:101DD000C4F201000068BDF8061008420CD0FFE70D
:101DE000BDF8060040F21441C4F201010860BDF8DC
:101DF0000600FFF7A9FEFFE702B080BD92B0119088
:101E0000109100200E900D900C900B9009900F9067
:101E1000FFE70F980F2800F29C81FFE70F99012040
:101E200088400E90109800680E9908400D900D980B
:101E30000E99884240F08881FFE71098406807902B
:101E4000002851D0FFE7079801283AD0FFE707980C
:101E500002283FD0FFE7079803285FD0FFE70798E5
:101E6000112832D0FFE70798122838D0FFE70798EB
:101E70000021C1F21101884236D0FFE70798002106
:101E8000C1F2120188422FD0FFE707980021C1F26A
:101E90002101884228D0FFE707980021C1F22201E2
:101EA000884221D0FFE707980021C1F23101884222
:101EB0001AD0FFE707980021C1F23201884213D0FF
:101EC0002FE01098C0680B902CE01098C068043088
:101ED0000B9027E01098C06808300B9022E0109813
:101EE000C0680C300B901DE01098806818B9FFE7AF
:101EF00004200B9011E010988068012806D1FFE7BC
:101F000008200B900E981199086105E008200B90AD
:101F10000E9811994861FFE7FFE703E000200B905E
:101F200000E0FFE70D98FF2803D8FFE7119806901F
:101F300003E0119804300690FFE706980A900D9888
:101F4000FF2804D8FFE70F988000059006E00F995E
:101F50006FF01F0000EB81000590FFE705980990E6
:101F60000A980068099A0F21914088430B99914083
:101F700008430A9908601098C079C006002840F10B
:101F8000E280FFE7FFE741F21800C4F202000168B7
:101F900041F001010160006800F00100089008981C
:101FA000FFE70F9820F003000821C4F20101405818
:101FB0000C900F9800F0030081000F2000FA01F14F
:101FC0000C9888430C90119840F60001C4F201016E
:101FD000884203D1FFE70020049042E0119840F6C8
:101FE0000041C4F20101884203D1FFE701200390C0
:101FF00034E0119841F20001C4F20101884203D19A
:10200000FFE70220029026E0119841F20041C4F25D
:102010000101884203D1FFE70320019018E01198E5
:1020200041F60001C4F20101884203D1FFE7042018
:1020300000900AE0119941F60042C4F20102062024
:10204000914208BF05200090FFE700980190FFE74C
:1020500001980290FFE702980390FFE7039804902D
:10206000FFE704980F9901F00301890000FA01F1DC
:102070000C9808430C900C980F9921F0030108224A
:10208000C4F20102885010988079C00748B1FFE778
:102090000D9A40F20041C4F2010108681043086043
:1020A00008E00D9A40F20041C4F201010868904333
:1020B0000860FFE7109880798007002809D5FFE7BE
:1020C0000D9A40F20441C4F201010868104308600F
:1020D00008E00D9A40F20441C4F2010108689043FF
:1020E0000860FFE710988079C006002809D5FFE74F
:1020F0000D9A40F20841C4F20101086810430860DB
:1021000008E00D9A40F20841C4F2010108689043CA
:102110000860FFE7109880798006002809D5FFE75E
:102120000D9A40F20C41C4F20101086810430860A6
:1021300008E00D9A40F20C41C4F201010868904396
:102140000860FFE7FFE7FFE7FFE70F9801300F9018
:102150005FE612B07047000082B00190ADF8021047
:1021600001988068BDF80210084204D0FFE7012002
:102170008DF8010003E000208DF80100FFE79DF8D5
:10218000010002B07047000082B00190ADF802106B
:102190008DF801209DF8010028B1FFE7BDF802008D
:1021A0000199086105E0BDF8020000040199086189
:1021B000FFE702B07047000041F69810C2F200003D
:1021C0000068704781B0009001B0704782B0019004
:1021D0008DF80310ADF8002002B0704780B586B0CE
:1021E000059005980068806904900598006840692A
:1021F00003900598006840680290059890F83E00AA
:1022000001900198102805D0FFE70198402840F080
:102210009280FFE7039810F0011F0AD0FFE79DF8B6
:1022200009008007002804D5FFE7059804F0C8F9E5
:1022300023E003980821C0F2010108420AD0FFE719
:102240009DF809008007002804D5FFE7059804F0F1
:102250003BF811E003980221C0F2010108420AD0C4
:10226000FFE79DF809008007002804D5FFE70598DF
:1022700004F036F8FFE7FFE7FFE704980421C0F217
:10228000100108422BD0FFE703988021C0F2010122
:10229000084211D0FFE79DF80900400700280BD540
:1022A000FFE703980421C0F20101084204D1FFE7CF
:1022B000059803F019FF11E003980421C0F2010111
:1022C00008420AD0FFE79DF809008007002804D5DE
:1022D000FFE7059803F09AFEFFE7FFE72AE003987F
:1022E0004021C0F20101084211D0FFE79DF809002A
:1022F000400700280BD5FFE703980421C0F2010135
:10230000084204D1FFE7059803F0F0FD11E00398BF
:102310000421C0F2010108420AD0FFE79DF809003C
:102320008007002804D5FFE7059803F033FDFFE799
:10233000FFE7FFE781E003980221C0F201010842B4
:102340000AD0FFE79DF809008007002804D5FFE7C1
:10235000059804F0BDFB6FE003981021C0F2010165
:1023600008420AD0FFE79DF809008007002804D53D
:10237000FFE7059804F0DEFB5DE004980421C0F25D
:10238000100108422BD0FFE703988021C0F2010121
:10239000084211D0FFE79DF80900400700280BD53F
:1023A000FFE703980421C0F20101084204D1FFE7CE
:1023B000059804F059FB11E003980421C0F20101D3
:1023C00008420AD0FFE79DF809008007002804D5DD
:1023D000FFE7059804F032FBFFE7FFE72AE00398E8
:1023E0004021C0F20101084211D0FFE79DF8090029
:1023F000400700280BD5FFE703980421C0F2010134
:10240000084204D1FFE7059804F0E4FA11E00398CC
:102410000421C0F2010108420AD0FFE79DF809003B
:102420008007002804D5FFE7059804F0BDFAFFE710
:10243000FFE7FFE7FFE7FFE7FFE706B080BD00002B
:1024400081B0009001B0704780B58CB00A90002038
:10245000099008900A9820B9FFE701208DF82F0015
:102460000DE10A9890F83D0040B9FFE70A99002075
:1024700081F83C000A9800F095FCFFE70A992420B7
:1024800081F83D000A980168086820F001000860A2
:1024900000F0F8FE08900A98406848F2A061C0F287
:1024A000010188420BD8FFE7089948F28042C0F248
:1024B0001E020020914238BF012007900AE00899CF
:1024C00040F60012C0F23D020020914238BF0120C8
:1024D0000790FFE70798012804D1FFE701208DF856
:1024E0002F00CCE008984DF68361C4F21B31A0FBAD
:1024F0000110800C099009980A99096848600A98A7
:10250000406848F2A061C0F20101884204D8FFE7A8
:102510000998013006900EE009984FF496714843EF
:1025200044F6D351C1F26201A0FB0101012000EB8E
:1025300091100690FFE706980A99096808620A98C0
:10254000406848F2A061C0F2010188421FD8FFE74D
:10255000089801380A9949684900B0FBF1F0013048
:102560006FF31F30032803D8FFE7042005900BE02A
:10257000089801380A9949684900B0FBF1F0013028
:102580006FF31F300590FFE7059804904CE00A9820
:10259000806868B9FFE7089801380A99496801EB33
:1025A0004101B0FBF1F001306FF31F3003900DE0FB
:1025B000089801380A99496819225143B0FBF1F093
:1025C0000130042161F31F300390FFE703980005F9
:1025D00018B9FFE70120029023E00A98806868B9E3
:1025E000FFE7089801380A99496801EB4101B0FBFF
:1025F000F1F001306FF31F3001900DE008980138C1
:102600000A99496819225143B0FBF1F001300421C5
:1026100061F31F300190FFE7019840F40040029001
:10262000FFE702980490FFE704980A990968C861D7
:102630000A9A1168D069126A104308600A98016802
:10264000C2680069104388600A9A116850699269EB
:102650001043C8600A980168086840F001000860EB
:102660000A99002008640A9A202182F83D100A99EC
:1026700008630A9981F83E008DF82F00FFE79DF866
:102680002F000CB080BD000081B0009001B07047F9
:1026900081B0009001B0704781B0009001B07047E8
:1026A00081B000900098006845F20041C4F200013A
:1026B000884201D1FFE7FFE701B0704781B0009089
:1026C0000098006845F20041C4F20001884201D13F
:1026D000FFE7FFE701B0704710B58CB08446109853
:1026E0000F98DDF838E0CDF828C0ADF82610ADF829
:1026F0002420ADF82230ADF8200000200790FFF72D
:102700005BFD07900A9890F83D00202840F01B825E
:10271000FFE70A9807996A4611600221C0F210018A
:102720000122192304F00EFB20B1FFE702208DF8EF
:102730002F000CE2FFE70A9890F83C00012804D132
:10274000FFE702208DF82F0001E20A99012081F8AD
:102750003C00FFE7FFE70A980068006800F001000E
:10276000012807D0FFE70A980168086840F00100D7
:102770000860FFE70A980168086820F400600860B4
:102780000A99222081F83D000A99402081F83E00F4
:102790000A99002008640E980A994862BDF8200042
:1027A0000A9948850A990020CFF6FF70C8620A98F6
:1027B000408D0A9908850A98BDF82610BDF8242096
:1027C000BDF82230DDF840C0079CEE46CEF804404C
:1027D000CEF800C003F054FFC8B1FFE70A98006CC0
:1027E00004280AD1FFE7FFE70A99002081F83C009E
:1027F000FFE701208DF82F00A9E1FFE70A990020EB
:1028000081F83C00FFE703208DF82F009FE10A9834
:10281000008DA0B9FFE7FFE7002006900A98006846
:10282000406906900A980068806906900698FFE75C
:102830000A980168086840F40070086057E00A9838
:10284000008D01281CD1FFE70A980168086820F470
:102850008060086072B6FFE7002005900A98006863
:10286000406905900A980068806905900598FFE71F
:102870000A980168086840F40070086062B635E0A4
:102880000A98008D02281CD1FFE70A9801680868A1
:1028900040F40060086072B6FFE7002004900A98D8
:1028A0000068406904900A98006880690490049860
:1028B000FFE70A980168086820F48060086062B643
:1028C00013E00A980168086840F480600860FFE738
:1028D000002003900A980068406903900A980068F5
:1028E000806903900398FFE7FFE7FFE7FFE7FFE753
:1028F0000A98008D002800F01481FFE70A98008DE7
:10290000032800F2CD80FFE70A98008D012825D129
:10291000FFE70A981099079A04F0EEFA68B1FFE70A
:102920000A98006C202804D1FFE703208DF82F00BF
:102930000DE101208DF82F0009E10A980068006977
:102940000A9B596A4A1C5A6208700A99088D013814
:1029500008850A99488D01384885A0E00A98008DBD
:1029600002283AD1FFE70A98109B07996A4611603E
:102970000421C0F20101002204F0E4F920B1FFE7D4
:1029800003208DF82F00E2E072B60A98016808680B
:1029900040F4007008600A98006800690A9B596A50
:1029A0004A1C5A6208700A99088D013808850A99EC
:1029B000488D0138488562B60A98006800690A9B0C
:1029C000596A4A1C5A6208700A99088D01380885AC
:1029D0000A99488D0138488560E00A98109B07994C
:1029E0006A4611600421C0F20101002204F0AAF934
:1029F00020B1FFE703208DF82F00A8E00A980168B6
:102A0000086820F48060086072B60A98006800695F
:102A10000A9B596A4A1C5A6208700A99088D013843
:102A200008850A99488D013848850A98109B0799AE
:102A30006A4611600421C0F20101002204F082F90B
:102A400020B1FFE703208DF82F0080E00A9801688D
:102A5000086840F4007008600A98006800690A9BE2
:102A6000596A4A1C5A6208700A99088D013808850B
:102A70000A99488D0138488562B60A98006800694D
:102A80000A9B596A4A1C5A6208700A99088D0138D3
:102A900008850A99488D01384885FFE7FFE73FE040
:102AA0000A981099079A04F027FA68B1FFE70A9884
:102AB000006C202804D1FFE703208DF82F0046E0AA
:102AC00001208DF82F0042E00A98006800690A9BF7
:102AD000596A4A1C5A6208700A99088D013808859B
:102AE0000A99488D013848850A980068406900F0C5
:102AF00004010120B0EB910F11D1FFE70A980068A3
:102B000000690A9B596A4A1C5A6208700A99088D22
:102B1000013808850A99488D01384885FFE7FFE7A5
:102B2000E6E60A99202081F83D000A99002081F804
:102B30003E00FFE70A99002081F83C00FFE70020F3
:102B40008DF82F0003E002208DF82F00FFE79DF89D
:102B50002F000CB010BD000010B588B084460C9852
:102B60000B98DDF828E0CDF818C0ADF81610ADF8D8
:102B70001420ADF81230ADF8100000200390FFF7DC
:102B80001BFB0390069890F83D00202840F001813F
:102B9000FFE7069803996A4611600221C0F210010E
:102BA0000122192304F0CEF820B1FFE702208DF8AE
:102BB0001F00F2E0FFE7069890F83C00012804D1DE
:102BC000FFE702208DF81F00E7E00699012081F859
:102BD0003C00FFE7FFE706980068006800F001008E
:102BE000012807D0FFE706980168086840F0010057
:102BF0000860FFE706980168086820F40060086034
:102C00000699212081F83D000699402081F83E0078
:102C10000699002008640A9806994862BDF81000D9
:102C20000699488506990020CFF6FF70C86206987D
:102C3000408D069908850698BDF81610BDF8142039
:102C4000BDF81230DDF830C0039CEE46CEF80440EB
:102C5000CEF800C003F008FEC8B1FFE70698006C8C
:102C600004280AD1FFE7FFE70699002081F83C001D
:102C7000FFE701208DF81F008FE0FFE70699002095
:102C800081F83C00FFE703208DF81F0085E0FFE797
:102C90000698008D00284AD0FFE706980C99039A01
:102CA00004F084F998B1FFE70698006C04280AD173
:102CB000FFE706980168086840F40070086001208A
:102CC0008DF81F0069E003208DF81F0065E0069A6B
:102CD000506A411C5162007806990968086106999A
:102CE000088D013808850699488D01384885069871
:102CF0000068406900F004010120B0EB910F15D18C
:102D0000FFE70698008D88B1FFE7069A506A411CDC
:102D1000516200780699096808610699088D0138A2
:102D200008850699488D01384885FFE7B0E7069881
:102D30000C99039A03F0BEFF98B1FFE70698006C68
:102D400004280AD1FFE706980168086840F400707B
:102D5000086001208DF81F001FE003208DF81F0080
:102D60001BE006980168086840F400700860069946
:102D7000202081F83D000699002081F83E00FFE701
:102D80000699002081F83C00FFE700208DF81F0025
:102D900003E002208DF81F00FFE79DF81F0008B038
:102DA00010BD000080B588B0079000200690059007
:102DB000049003900798006845F20041C4F20001B6
:102DC000884235D1FFE7FFE741F21800C4F2020064
:102DD000016841F008010160006800F008000290FD
:102DE0000298FFE7C0200390122004900320069071
:102DF00040F60040C4F2010003A9FEF7FFFFFFE721
:102E000041F21C00C4F20200016841F400110160AB
:102E1000006800F4001001900198FFE71F20009067
:102E20000022114600F0A6F8009800F099F8FFE79C
:102E300008B080BD81B0009001B0704781B00090B3
:102E400001B0704740F21400C2F20000027841F66F
:102E50009811C2F200010868104408607047000031
:102E600080B582B042F20001C4F20201086840F06D
:102E700010000860032000F097F80020019000F097
:102E800005F800F03BF8019802B080BD80B582B033
:102E9000009040F20000C2F20000006840F214010D
:102EA000C2F200010A784FF47A71B1FBF2F1B0FB83
:102EB000F1F001F051FA20B1FFE701208DF8070091
:102EC00018E000980F280DD8FFE700994FF0FF3069
:102ED000002200F04FF8009840F21801C2F2000101
:102EE000086003E001208DF8070003E000208DF862
:102EF0000700FFE79DF8070002B080BD80B584B0F1
:102F0000FFE741F21800C4F20200016841F001013C
:102F10000160006800F0010003900398FFE7FFE7FD
:102F200041F21C00C4F20200016841F080510160CE
:102F3000006800F0805002900298FFE7052000F042
:102F400033F8FFE70421C4F20101086801900198F9
:102F500020F0E060019001980860FFE704B080BDB8
:102F600080B582B08DF807009DF9070004F026FDBA
:102F700002B080BD80B586B08DF817000491039231
:102F80000020029004F062FD02909DF9170001906C
:102F900002980499039A04F023FD0146019804F075
:102FA0005DFD06B080BD000080B582B00190019843
:102FB00004F076FD02B080BD80B586B00490039128
:102FC00000200290039842F20001C4F20201096855
:102FD00001F00701884216D9FFE742F20000C4F26F
:102FE0000200016821F00701039A114301600068A3
:102FF00000F007000399884204D0FFE701208DF814
:10300000170035E1FFE704980078800700282AD5EB
:10301000FFE7049800784007002809D5FFE741F250
:103020000401C4F20201086840F4E0600860FFE7B0
:10303000049800780007002809D5FFE741F2040151
:10304000C4F20201086840F460500860FFE741F2F2
:103050000401C4F20201086820F0F000049A9268AA
:1030600010430860FFE704980078C007002800F0CC
:103070009D80FFE70498406801280ED1FFE741F2E8
:103080000000C4F2020000688003002804D4FFE7B7
:1030900001208DF81700EBE021E004984068022839
:1030A0000ED1FFE741F20000C4F202000068800187
:1030B000002804D4FFE701208DF81700D8E00DE0C8
:1030C00041F20000C4F2020000688007002804D426
:1030D000FFE701208DF81700CAE0FFE7FFE741F2A4
:1030E0000401C4F20201086820F00300049A526847
:1030F00010430860FFF760F80290049840680128C8
:103100001AD1FFE7FFE741F20400C4F202000068B1
:1031100000F00C0004280ED0FFE7FFF74DF80299ED
:10312000401A41F28931884204D3FFE703208DF829
:1031300017009DE0E7E738E00498406802281AD1BC
:10314000FFE7FFE741F20400C4F20200006800F06C
:103150000C0008280ED0FFE7FFF72EF80299401A5E
:1031600041F28931884204D3FFE703208DF817002C
:103170007EE0E7E718E0FFE741F20400C4F2020056
:10318000006810F00C0F0ED0FFE7FFF715F802995A
:10319000401A41F28931884204D3FFE703208DF8B9
:1031A000170065E0E8E7FFE7FFE7FFE7039842F273
:1031B0000001C4F20201096801F00701884216D239
:1031C000FFE742F20000C4F20200016821F00701AB
:1031D000039A11430160006800F0070003998842D8
:1031E00004D0FFE701208DF8170041E0FFE70498C5
:1031F0000078400700280CD5FFE741F20401C4F233
:103200000201086820F4E060049AD2681043086064
:10321000FFE704980078000700280DD5FFE741F28A
:103220000401C4F20201086820F46050049A126993
:1032300040EAC2000860FFE700F048F841F20401EC
:10324000C4F202010968C9B20A0940F6AC41C0F6ED
:103250000101895CC84040F20001C2F2000108602F
:1032600000200190FFF712FE01988DF81700FFE78C
:103270009DF8170006B080BD40F20000C2F20000C9
:103280000068704780B5FFF7F7FF41F20401C4F210
:1032900002010968C1F3022240F6BC41C0F60101F7
:1032A000895CC84080BD000080B5FFF7E5FF41F2B2
:1032B0000401C4F202010968C1F3C22240F6BC4114
:1032C000C0F60101895CC84080BD00008BB040F6AB
:1032D0000E70C1F210000A9040F60A30C0F60C5091
:1032E000099040F20670C0F60810089040F20230D3
:1032F000C0F20450079040F20120ADF81A000020FF
:103300000590049003900290019041F20400C4F2F1
:10331000020000680590059800F00C00014600913D
:10332000E0B3FFE70098042804D0FFE700980828DE
:1033300006D034E041F20020C0F27A00019034E07F
:103340000598C0F3834107A8405C02909DF81600E1
:10335000C007C0B1FFE741F20400C4F202000068F8
:1033600000F400310DF11A0040EA51400078049059
:10337000029841F20021C0F27A0148430499B0FB5F
:10338000F1F0039007E0029840F60011C0F23D0111
:1033900048430390FFE70398019006E0FFE741F2FE
:1033A0000020C0F27A000190FFE701980BB070474F
:1033B00080B586B004900020039004980078C00780
:1033C000002800F0AE80FFE741F20400C4F20200E2
:1033D000006800F00C00042813D0FFE741F204005D
:1033E000C4F20200006800F00C0008281BD1FFE7BF
:1033F00041F20400C4F202000068C003002812D5A4
:10340000FFE741F20000C4F20200006880030028D8
:1034100008D5FFE70498406820B9FFE701208DF840
:103420001700D8E27CE0FFE704984068B0F5803FE1
:1034300009D1FFE741F20001C4F20201086840F43B
:103440008030086032E00498406868B9FFE741F2D4
:103450000001C4F20201086820F4803008600868A6
:1034600020F48020086020E004984068B0F5A02F88
:103470000DD1FFE741F20001C4F20201086840F4F7
:1034800080200860086840F4803008600CE041F259
:103490000001C4F20201086820F480300860086866
:1034A00020F480200860FFE7FFE7FFE7FFE70498CC
:1034B0004068D0B1FFE7FEF77FFE0390FFE741F2DF
:1034C0000000C4F202000068800300280CD4FFE76B
:1034D000FEF772FE0399401A652804D3FFE7032024
:1034E0008DF8170077E2EAE719E0FEF765FE039032
:1034F000FFE741F20000C4F20200006880030028E8
:103500000CD5FFE7FEF758FE0399401A652804D34F
:10351000FFE703208DF817005DE2EAE7FFE7FFE72A
:10352000FFE7049800788007002840F18D80FFE7CE
:1035300041F20400C4F20200006810F00C0F13D036
:10354000FFE741F20400C4F20200006800F00C0042
:10355000082829D1FFE741F20400C4F20200006804
:10356000C003002820D4FFE741F20000C4F20200AB
:1035700000688007002809D5FFE704980069012842
:1035800004D0FFE701208DF8170024E241F200018A
:10359000C4F20201086820F0F800049A526940EA77
:1035A000C2000860FFE74EE00498006958B3FFE7E7
:1035B0000021C4F2422101200860FEF7FDFD0390C6
:1035C000FFE741F20000C4F2020000688007002813
:1035D0000CD4FFE7FEF7F0FD0399401A032804D34B
:1035E000FFE703208DF81700F5E1EAE741F200015B
:1035F000C4F20201086820F0F800049A526940EA17
:10360000C20008601EE00021C4F2422100200860D0
:10361000FEF7D2FD0390FFE741F20000C4F2020082
:103620000068800700280CD5FFE7FEF7C5FD039969
:10363000401A032804D3FFE703208DF81700CAE1DE
:10364000EAE7FFE7FFE7FFE70498007800070028B4
:1036500048D5FFE70498806918B3FFE740F280413E
:10366000C4F2422101200860FEF7A6FD0390FFE7A7
:1036700041F22400C4F202000068800700280CD444
:10368000FFE7FEF799FD0399401A032804D3FFE7EB
:1036900003208DF817009EE1EAE7012004F020FAEC
:1036A0001FE040F28041C4F2422100200860FEF792
:1036B00083FD0390FFE741F22400C4F2020000689A
:1036C000800700280CD5FFE7FEF776FD0399401A26
:1036D000032804D3FFE703208DF817007BE1EAE716
:1036E000FFE7FFE7049800784007002840F1D88002
:1036F000FFE700208DF80B0041F21C00C4F202002D
:103700000068C000002813D4FFE7FFE741F21C0067
:10371000C4F20200016841F080510160006800F0CD
:10372000805001900198FFE701208DF80B00FFE722
:1037300047F20000C4F200000068C005002822D44F
:10374000FFE747F20001C4F20001086840F480700E
:103750000860FEF731FD0390FFE747F20000C4F276
:1037600000000068C00500280CD4FFE7FEF724FD28
:103770000399401A652804D3FFE703208DF817004A
:1037800029E1EAE7FFE7FFE70498C068012809D1CB
:10379000FFE741F22001C4F20201086840F0010095
:1037A000086031E00498C06868B9FFE741F2200181
:1037B000C4F20201086820F001000860086820F0E7
:1037C000040008601FE00498C06805280DD1FFE7D9
:1037D00041F22001C4F20201086840F004000860D0
:1037E000086840F0010008600CE041F22001C4F2DA
:1037F0000201086820F001000860086820F0040059
:103800000860FFE7FFE7FFE7FFE70498C068E0B163
:10381000FFE7FEF7D1FC0390FFE741F22000C4F27E
:1038200002000068800700280ED4FFE7FEF7C4FC02
:103830000399401A41F28931884204D3FFE70320FB
:103840008DF81700C7E0E8E71BE0FEF7B5FC039032
:10385000FFE741F22000C4F2020000688007002860
:103860000ED5FFE7FEF7A8FC0399401A41F2893113
:10387000884204D3FFE703208DF81700ABE0E8E7A8
:10388000FFE79DF80B00012809D1FFE741F21C0179
:10389000C4F20201086820F080500860FFE7FFE7EB
:1038A0000498C069002800F09280FFE741F204000C
:1038B000C4F20200006800F00C00082800F08280CA
:1038C000FFE70498C06902285CD1FFE76021C4F2D9
:1038D000422100200860FEF76FFC0390FFE741F2F1
:1038E0000000C4F202000068800100280CD5FFE748
:1038F000FEF762FC0399401A032804D3FFE7032074
:103900008DF8170067E0EAE70498006AB0F5803F99
:103910000CD1FFE741F20401C4F20201086820F46F
:103920000030049A926810430860FFE741F20401F6
:10393000C4F20201086820F47410049B1A6A5B6ADE
:103940001A43104308606021C4F24221012008603C
:10395000FEF732FC0390FFE741F20000C4F20200E0
:103960000068800100280CD4FFE7FEF725FC0399CE
:10397000401A032804D3FFE703208DF817002AE03C
:10398000EAE71EE06021C4F2422100200860FEF751
:1039900013FC0390FFE741F20000C4F2020000684C
:1039A000800100280CD5FFE7FEF706FC0399401ABA
:1039B000032804D3FFE703208DF817000BE0EAE7A4
:1039C000FFE703E001208DF8170004E0FFE7002087
:1039D0008DF81700FFE79DF8170006B080BD0000C6
:1039E00080B584B00290029820B9FFE701208DF8DD
:1039F0000F004BE0029900208862029890F8510075
:103A000020B9FFE7029800F045F8FFE7029902208D
:103A100081F8510002980168086820F040000860B1
:103A2000029A019211685068D2F808C0D36840EA3F
:103A30000C0018431369184353691843936903F43E
:103A400000731843D3691843136A1843926A1043EA
:103A50000860029801688369426A042000EA134002
:103A60001043486002980168C06A086102980168C2
:103A7000C86920F40060C861029900204865029A74
:103A8000012182F851108DF80F00FFE79DF80F001B
:103A900004B080BD80B58AB00990002008900790DE
:103AA000069005900998006843F60001C4F20001F1
:103AB000884239D1FFE7FFE741F21C00C4F202005F
:103AC000016841F480410160006800F48040049086
:103AD0000498FFE7FFE741F21800C4F20200016812
:103AE00041F008010160006800F0080003900398AD
:103AF000FFE74FF420400590022006900320089035
:103B000040F60040C4F20100019005A90291FEF7C1
:103B100075F9019802994FF48042059200220692AD
:103B20000792FEF76BF9FFE70AB080BD80B588B059
:103B300006900591ADF812200393002002908DF8B5
:103B4000070006984068B0F5827F16D1FFE7069817
:103B5000806890B9FFE70699042081F85100069823
:103B6000059ABDF812300399EC46CCF800101146C6
:103B700000F042FA8DF81F00F1E0FFE7069890F898
:103B80005000012804D1FFE702208DF81F00E6E075
:103B90000699012081F85000FFE7FFE7FEF70CFBD4
:103BA0000290069890F85100012804D0FFE7022007
:103BB0008DF80700C4E0059820B1FFE7BDF81200BA
:103BC00020B9FFE701208DF80700B9E0069904202D
:103BD00081F851000699002048650599069A91637D
:103BE000BDF81210069A9187BDF81210069AD18777
:103BF00006990863069988860699C8860699086416
:103C00000699486406988068B0F5004F07D1FFE731
:103C100006980168086820F480400860FFE706986D
:103C20000068006800F04000402807D0FFE70698D1
:103C30000168086840F040000860FFE70698C06827
:103C400070BBFFE7FFE70698C08F40B3FFE7069819
:103C500000688068C00768B1FFE706980068007BCD
:103C6000059908700598013005900699C88F0138AC
:103C7000C88713E0039860B1FFE70398013060B193
:103C8000FFE7FEF799FA0299401A0399884204D394
:103C9000FFE703208DF8070052E0FFE7D3E72DE0B0
:103CA000FFE70698C08F40B3FFE70698006880687A
:103CB000C00768B1FFE706980068C06805990880EA
:103CC0000598023005900699C88F0138C88713E01F
:103CD000039860B1FFE70398013060B1FFE7FEF79A
:103CE0006BFA0299401A0399884204D3FFE7032034
:103CF0008DF8070024E0FFE7D3E7FFE70698406868
:103D0000B0F5827F13D1FFE706988068B0F5004FC9
:103D100006D0FFE706988068B0F5806F07D1FFE70F
:103D200006980168086820F040000860FFE70698E0
:103D3000406D20B1FFE701208DF80700FFE7FFE7A6
:103D40000699012081F85100FFE70699002081F8CB
:103D50005000FFE79DF807008DF81F00FFE79DF872
:103D60001F0008B080BD000080B58AB008900791A0
:103D7000ADF81A200593002004908DF80F00FFE79E
:103D8000089890F85000012804D1FFE702208DF830
:103D900027002CE10899012081F85000FFE7FFE798
:103DA000FEF70AFA0490089890F85100012804D010
:103DB000FFE702208DF80F000AE1079820B1FFE726
:103DC000BDF81A0020B9FFE701208DF80F00FFE0D1
:103DD0000899032081F85100089900204865079947
:103DE000089A1163BDF81A10089A9186BDF81A1046
:103DF000089AD18608998863089988870899C8879E
:103E0000089948640899086408988068B0F5004FDC
:103E100007D1FFE708980168086840F4804008600F
:103E2000FFE708980068006800F04000402807D0CD
:103E3000FFE708980168086840F040000860FFE765
:103E40000898C068B0F5006F45D1FFE70898406852
:103E500028B1FFE70898C08E01280DD1FFE7079829
:103E6000008808990968C860079802300790089987
:103E7000C88E0138C886FFE7FFE70898C08E48B3B0
:103E8000FFE7089800688068800700280DD5FFE7E5
:103E90000798008808990968C86007980230079059
:103EA0000899C88E0138C88613E0059860B1FFE70D
:103EB0000598013060B1FFE7FEF77EF90499401ADA
:103EC0000599884204D3FFE703208DF80F007FE0B7
:103ED000FFE7D2E744E00898406828B1FFE7089878
:103EE000C08E01280DD1FFE707980078089909686E
:103EF00008730798013007900899C88E0138C88662
:103F0000FFE7FFE70898C08E48B3FFE7089800680E
:103F10008068800700280DD5FFE70798007808998A
:103F2000096808730798013007900899C88E01380E
:103F3000C88613E0059860B1FFE70598013060B1CD
:103F4000FFE7FEF739F90499401A0599884204D32E
:103F5000FFE703208DF80F003AE0FFE7D2E7FFE725
:103F60000898059B04996A4611600221012203F01A
:103F7000F7FD20B1FFE703208DF80F0028E0089837
:103F80000599049A03F0CAFD38B1FFE701208DF8C6
:103F90000F000899202048651AE00898806870B9D9
:103FA000FFE7FFE70020029008980068C0680290D1
:103FB00008980068806802900298FFE7FFE7089879
:103FC000406D20B1FFE701208DF80F00FFE7FFE70C
:103FD0000899012081F85100FFE70899002081F835
:103FE0005000FFE79DF80F008DF82700FFE79DF8D0
:103FF00027000AB080BD000080B58EB0DDF840C05B
:104000000C900B910A92ADF8263000200890079092
:104010000690012105918DF81300FFE70C9890F8A8
:104020005000012804D1FFE702208DF837008EE10F
:104030000C99012081F85000FFE7FFE7FEF7BCF87C
:1040400006900C9890F8510008900C9840680790E2
:104050000898012811D0FFE70798B0F5827F08D1B2
:10406000FFE70C98806820B9FFE70898042804D07F
:10407000FFE702208DF813005AE10B9838B1FFE7F3
:104080000A9820B1FFE7BDF8260020B9FFE701201C
:104090008DF813004CE10C9890F85100012805D1DF
:1040A000FFE70C99052081F85100FFE70C990020EB
:1040B00048650A990C9A9163BDF826100C9AD1872D
:1040C000BDF826100C9A91870B990C9A1163BDF8D4
:1040D00026100C9AD186BDF826100C9A91860C9960
:1040E00008640C9948640C980068006800F040006F
:1040F000402807D0FFE70C980168086840F04000AE
:104100000860FFE70C98C068B0F5006F71D1FFE759
:104110000C98406828B1FFE70C98C08E01280DD19B
:10412000FFE70B9800880C990968C8600B9802306B
:104130000B900C99C88E0138C886FFE7FFE70C98F2
:10414000C18E0120029039B9FFE70C98C08F00287A
:1041500018BF01200290FFE70298C007002847D04F
:10416000FFE70598D0B1FFE70C98C08EB0B1FFE72C
:104170000C9800688068800700280FD5FFE70B982F
:1041800000880C990968C8600B9802300B900C9954
:10419000C88E0138C88600200590FFE70C98C08FB4
:1041A000A8B1FFE70C9800688068C00778B1FFE706
:1041B0000C980068C0680A9908800A9802300A9032
:1041C0000C99C88F0138C88701200590FFE7109827
:1041D000013060B1FFE7FDF7EFFF0699401A109933
:1041E000884204D3FFE703208DF81300A0E0A6E780
:1041F0006EE00C98406828B1FFE70C98C08E01284B
:104200000DD1FFE70B9800780C99096808730B989B
:1042100001300B900C99C88E0138C886FFE7FFE784
:104220000C98C18E0120019039B9FFE70C98C08F1E
:10423000002818BF01200190FFE70198C00700285F
:1042400045D0FFE70598C8B1FFE70C98C08EA8B12C
:10425000FFE70C9800688068800700280ED5FFE70C
:104260000B98411C0B9100780C99096808730C9904
:10427000C88E0138C88600200590FFE70C98C08FD3
:10428000A0B1FFE70C9800688068C00770B1FFE735
:104290000C980068C0680A994A1C0A9208700C9928
:1042A000C88F0138C88701200590FFE710980130BA
:1042B00060B1FFE7FDF780FF0699401A1099884228
:1042C00004D3FFE703208DF8130031E0A8E7FFE7F0
:1042D0000C98109B06996A4611600221012203F096
:1042E0003FFC20B1FFE703208DF8130020E00C987D
:1042F0001099069A03F012FC38B1FFE701208DF8FF
:1043000013000C992020486512E00C98806870B961
:10431000FFE7FFE7002003900C980068C068039057
:104320000C980068806803900398FFE7FFE7FFE7B9
:104330000C99012081F85100FFE70C99002081F8C9
:104340005000FFE79DF813008DF83700FFE79DF858
:1043500037000EB080BD000080B582B0019001989A
:1043600003F074FC02B080BD80B582B08DF8070008
:1043700000208DF8060040F21400C2F20000007820
:104380009DF80710884211D0FFE79DF8070040F222
:104390001401C2F20001087040F21800C2F20000DD
:1043A0000068FEF773FD8DF80600FFE79DF8060034
:1043B00002B080BD81B0009001B0704781B0009024
:1043C00001B0704783B001900091FFE7019890F829
:1043D0003C00012804D1FFE702208DF80B0031E0FA
:1043E0000199012081F83C00FFE7FFE701990220D5
:1043F00081F83D0001980168486820F0700048602D
:104400000098026801980168486810434860019864
:104410000168886820F080008860009842680198F0
:1044200001688868104388600199012081F83D0087
:10443000FFE70199002081F83C00FFE700208DF89C
:104440000B00FFE79DF80B0003B0704780B582B00A
:104450000090009820B9FFE701208DF807001DE0CB
:10446000009890F83D0040B9FFE70099002081F8DE
:104470003C00009800F016F8FFE70099022081F850
:104480003D00009951F8040B03F0CEFC0099012087
:1044900081F83D0000208DF80700FFE79DF8070038
:1044A00002B080BD80B59AB019901998006840F6A6
:1044B0000041C4F20001884219D1FFE7FFE741F251
:1044C0001C00C4F20200016841F0080101600068AC
:1044D00000F0080018901898FFE732200E90022193
:1044E0000022FEF747FD0E98FEF73AFD4EE11998BF
:1044F000006841F20001C4F20001884219D1FFE7CF
:10450000FFE741F21C00C4F20200016841F0100113
:104510000160006800F0100017901798FFE7362040
:104520000D9002210022FEF725FD0D98FEF718FDE3
:104530002BE11998006841F20041C4F20001884261
:1045400019D1FFE7FFE741F21C00C4F20200016845
:1045500041F020010160006800F0200016901698DC
:10456000FFE737200C9002210022FEF703FD0C9894
:10457000FEF7F6FC08E11998006843F20041C4F226
:10458000010188422DD1FFE7FFE741F21800C4F294
:104590000200016841F400510160006800F400501D
:1045A00015901598FFE72B20079002210991002212
:1045B0000A92FEF7DFFC0798FEF7D2FC09990A9AE7
:1045C0002C200890FEF7D6FC0898FEF7C9FC099944
:1045D0000A9A2D200B90FEF7CDFC0B98FEF7C0FC3D
:1045E000D1E01998006844F60041C4F20101884204
:1045F00019D1FFE7FFE741F21800C4F20200016899
:1046000041F400210160006800F400201490149827
:10461000FFE71820069002210022FEF7ABFC069867
:10462000FEF79EFCAEE01998006845F20001C4F266
:104630000101884219D1FFE7FFE741F21800C4F2F7
:104640000200016841F480110160006800F48010EC
:1046500013901398FFE71920059002210022FEF71E
:1046600089FC0598FEF77CFC8BE01998006845F200
:104670000041C4F20101884219D1FFE7FFE741F28E
:104680001800C4F20200016841F4001101600068E2
:1046900000F4001012901298FFE71A2004900221F3
:1046A0000022FEF767FC0498FEF75AFC68E01998B0
:1046B000006841F60001C4F20001884219D1FFE709
:1046C000FFE741F21C00C4F20200016841F0400122
:1046D0000160006800F0400011901198FFE72B2066
:1046E000039002210022FEF745FC0398FEF738FCF8
:1046F00045E01998006841F60041C4F20001884283
:1047000019D1FFE7FFE741F21C00C4F20200016883
:1047100041F080010160006800F080001090109866
:10472000FFE72C20029002210022FEF723FC0298D2
:10473000FEF716FC22E01998006842F20001C4F26C
:104740000001884219D1FFE7FFE741F21C00C4F2E3
:104750000200016841F480710160006800F480701B
:104760000F900F98FFE72D20019002210022FEF705
:1047700001FC0198FEF7F4FBFFE7FFE7FFE7FFE727
:10478000FFE7FFE7FFE7FFE7FFE7FFE71AB080BDBE
:1047900081B0009000980168C86840F00100C860CE
:1047A00000980168086840F001000860002001B02E
:1047B0007047000081B0009000980168C86820F040
:1047C0000100C860FFE700980068006A41F211111B
:1047D000084210D1FFE700980068006A40F24441A7
:1047E000084207D1FFE700980168086820F001003F
:1047F0000860FFE7FFE7FFE7002001B07047000017
:1048000080B586B00490039100200290FFE70498E1
:1048100090F83C00012804D1FFE702208DF8170032
:10482000C6E00499012081F83C00FFE7FFE7049906
:10483000022081F83D000498006880680290029888
:1048400020F077000290029820F47F4002900298B6
:10485000049909688860039800680190002800F0B6
:104860008080FFE70198102800F08180FFE7019821
:10487000202800F08280FFE70198302800F0838034
:10488000FFE7019840285FD0FFE70198502841D00A
:10489000FFE7019860284AD0FFE70198702811D0FF
:1048A000FFE70198B0F5805F05D0FFE70198B0F50C
:1048B000005F20D06DE004980168886820F0070050
:1048C000886067E004980068039B5A689968DB6811
:1048D00003F098FB0498006880680290029820F02A
:1048E00077000290029840F07700029002980499B5
:1048F000096888604EE004980068039B5A689968CC
:10490000DB6803F07FFB04980168886840F480400E
:1049100088603FE004980068039A5168D26803F009
:104920007BFD04980068502103F088FB32E0049876
:104930000068039A5168D26803F09AFD04980068F1
:10494000602103F07BFB25E004980068039A51681E
:10495000D26803F061FD04980068402103F06EFB0B
:1049600018E004980068002103F068FB12E0049846
:104970000068102103F062FB0CE00498006820211D
:1049800003F05CFB06E004980068302103F056FB5E
:1049900000E0FFE70499012081F83D00FFE704995A
:1049A000002081F83C00FFE700208DF81700FFE7AA
:1049B0009DF8170006B080BD81B0009001B070472F
:1049C00080B582B0019001980068006900F0020192
:1049D0000020B0EB510F28D0FFE701980068C068B5
:1049E00000F002010020B0EB510F1DD0FFE701984D
:1049F00001686FF0020008610199012008770198B1
:104A000000688069800720B1FFE70198FFF7D4FFB5
:104A100006E0019800F058F9019800F045FAFFE728
:104A2000019900200877FFE7FFE701980068006917
:104A300000F004010020B0EB910F29D0FFE70198AE
:104A40000068C06800F004010020B0EB910F1ED098
:104A5000FFE7019801686FF00400086101990220E6
:104A6000087701980068806910F4407F04D0FFE760
:104A70000198FFF7A1FF06E0019800F025F90198E1
:104A800000F012FAFFE7019900200877FFE7FFE73F
:104A900001980068006900F008010020B0EBD10F18
:104AA00028D0FFE701980068C06800F008010020E6
:104AB000B0EBD10F1DD0FFE7019801686FF008003F
:104AC000086101990420087701980068C06980078F
:104AD00020B1FFE70198FFF76FFF06E0019800F0B3
:104AE000F3F8019800F0E0F9FFE70199002008775A
:104AF000FFE7FFE701980068006900F0100100205F
:104B0000B0EB111F29D0FFE701980068C06800F0E2
:104B100010010020B0EB111F1ED0FFE701980168C3
:104B20006FF010000861019908200877019800686B
:104B3000C06910F4407F04D0FFE70198FFF73CFF05
:104B400006E0019800F0C0F8019800F0ADF9FFE729
:104B5000019900200877FFE7FFE7019800680069E6
:104B6000C00780B1FFE701980068C068C00748B17E
:104B7000FFE7019801686FF001000861019800F0FB
:104B8000CDF9FFE7FFE7019800680069C1B2002096
:104B9000B0EBD11F13D0FFE701980068C068C1B225
:104BA0000020B0EBD11F09D0FFE7019801686FF03A
:104BB000800008610198FFF7FDFBFFE7FFE7019820
:104BC0000068006900F040010020B0EB911F14D094
:104BD000FFE701980068C06800F040010020B0EBDA
:104BE000911F09D0FFE7019801686FF0400008614C
:104BF000019800F023FAFFE7FFE7019800680069D9
:104C000000F020010020B0EB511F14D0FFE7019805
:104C10000068C06800F020010020B0EB511F09D0EF
:104C2000FFE7019801686FF0200008610198FFF725
:104C3000C5FBFFE7FFE702B080BD000080B588B08C
:104C40000790002006900590049003900798006854
:104C500040F20041C4F20001884232D1FFE7FFE791
:104C600041F21800C4F20200016841F01001016035
:104C7000006800F0100002900298FFE74FF4707097
:104C8000039002200490069041F20000C4F201005B
:104C900003A9FDF7B3F8FFE70421C4F20101086896
:104CA0000190019820F440600190019840F0E0608C
:104CB0000190019840F44060019001980860FFE77E
:104CC000FFE708B080BD000081B0009001B07047E0
:104CD00080B586B0049003910292FFE7049890F8A3
:104CE0003C00012804D1FFE702208DF817008DE079
:104CF0000499012081F83C00FFE7FFE704990220B6
:104D000081F83D00029801900C2800F27080019912
:104D1000DFE801F0076D6D6D206D6D6D3A6D6D6DA5
:104D2000530004980068039903F0A2F904980168FD
:104D3000886940F00800886104980168886920F05B
:104D40000400886103980269049801688869104327
:104D500088614DE004980068039903F005FA04980F
:104D60000168886940F40060886104980168886976
:104D700020F480608861039802690498016888695A
:104D800040EA0220886133E004980068039903F048
:104D90006BFA04980168C86940F00800C86104987B
:104DA0000168C86920F00400C8610398026904988A
:104DB0000168C8691043C8611AE004980068039943
:104DC00003F0D2FA04980168C86940F40060C86131
:104DD00004980168C86920F48060C861039802697A
:104DE00004980168C86940EA0220C86100E0FFE752
:104DF0000499012081F83D00FFE70499002081F823
:104E00003C00FFE700208DF81700FFE79DF8170032
:104E100006B080BD80B582B00090009820B9FFE751
:104E200001208DF807001DE0009890F83D0040B982
:104E3000FFE70099002081F83C00009800F016F888
:104E4000FFE70099022081F83D00009951F8040B1A
:104E500002F0EAFF0099012081F83D0000208DF862
:104E60000700FFE79DF8070002B080BD82B0019007
:104E70000198006840F20041C4F20001884210D15C
:104E8000FFE7FFE741F21C00C4F20200016841F0B5
:104E900002010160006800F0020000900098FFE746
:104EA000FFE702B07047000081B0009001B070478A
:104EB00080B584B0039002910398006802990122A2
:104EC000009203F085F800980399096842F60042C1
:104ED000C4F20102914201900CD0FFE703980068F0
:104EE0004CF60041CBF6FE710844B0FA80F0400960
:104EF0000190FFE70198C00738B1FFE70398016808
:104F0000486C40F400404864FFE703980168086873
:104F100040F001000860002004B080BD80B582B080
:104F200001900198006840F60041C4F200018842F7
:104F300004D1FFE700200AF071FB7DE001980068D2
:104F400041F20001C4F20001884204D1FFE70120D0
:104F50000AF064FB6FE00198006841F20041C4F27E
:104F60000001884204D1FFE702200AF057FB61E00C
:104F70000198006843F20041C4F20101884204D163
:104F8000FFE703200AF04AFB53E00198006844F66B
:104F90000041C4F20101884204D1FFE704200AF075
:104FA0003DFB45E00198006845F20001C4F20101B3
:104FB000884204D1FFE705200AF030FB37E0019872
:104FC000006845F20041C4F20101884204D1FFE7C4
:104FD00006200AF023FB29E00198006841F6000151
:104FE000C4F20001884204D1FFE707200AF016FB53
:104FF0001BE00198006841F60041C4F200018842BC
:1050000004D1FFE708200AF009FB0DE001980068D1
:1050100042F20001C4F20001884204D1FFE70920F6
:105020000AF0FCFAFFE7FFE7FFE7FFE7FFE7FFE72C
:10503000FFE7FFE7FFE7FFE702B080BD81B0009028
:1050400001B0704781B0009001B0704780B586B064
:105050000590059800680068049005980068C0688D
:10506000039005980068406902900020019000902C
:10507000049800F00F000190019888B9FFE79DF8AF
:105080001000800600280AD5FFE79DF80C00800676
:10509000002804D5FFE7059803F05EFAD2E0FFE7A9
:1050A0000198002800F0AE80FFE79DF80800C007D7
:1050B00038B9FFE7BDF80C0010F4907F00F0A28033
:1050C000FFE79DF81000C00758B1FFE79DF80D00FD
:1050D000C00730B1FFE70599C86B40F00100C86315
:1050E000FFE79DF81000400700280BD5FFE79DF86B
:1050F0000800C00730B1FFE70599C86B40F0020017
:10510000C863FFE79DF81000800700280BD5FFE774
:105110009DF80800C00730B1FFE70599C86B40F063
:105120000400C863FFE79DF81000000700280BD5B6
:10513000FFE79DF80800C00730B1FFE70599C86B8D
:1051400040F00800C863FFE70598C06B002858D0FE
:10515000FFE79DF81000800600280AD5FFE79DF8BC
:105160000C008006002804D5FFE7059803F0F4F949
:10517000FFE7059800684069C0F38010009005982B
:10518000C06B0007002803D4FFE7009888B3FFE74F
:10519000059803F0B9F905980068406940060028B1
:1051A00022D5FFE705980168486920F04000486172
:1051B0000598406B98B1FFE70598416B48F2E940CC
:1051C000C0F6000048630598406BFCF731FB28B13E
:1051D000FFE70598406B416B8847FFE703E00598C0
:1051E000FFF730FFFFE703E00598FFF72BFFFFE72E
:1051F00006E00598FFF726FF05990020C863FFE742
:10520000FFE71FE09DF81000000600280AD5FFE721
:105210009DF80C000006002804D5FFE7059803F070
:105220001FFB0FE09DF81000400600280AD5FFE79D
:105230009DF80C004006002804D5FFE7059803F010
:1052400077F9FFE706B080BD80B582B00090009886
:1052500020B9FFE701208DF807003EE00098806943
:1052600008B1FFE700E0FFE7009890F8390040B987
:10527000FFE70099002081F83800009800F032F82C
:10528000FFE70099242081F8390000980168C86878
:1052900020F40050C860009803F0D6F90098016827
:1052A000086920F49040086100980168486920F07E
:1052B0002A00486100980168C86840F40050C8603E
:1052C00000990020C863009A202182F83910009AC2
:1052D00082F83A108DF80700FFE79DF8070002B04A
:1052E00080BD000080B5A2B02190002020901F90CA
:1052F0001E901D902198006844F60041C4F2000100
:10530000884243D1FFE7FFE741F21C00C4F20200EC
:10531000016841F400210160006800F400201C9045
:105320001C98FFE7FFE741F21800C4F20200016891
:1053300041F010010160006800F010001B901B9804
:10534000FFE74FF480601D90022010901E90032014
:10535000209041F20000C4F201000E901DA90F91AF
:10536000FCF74CFD0E980F994FF400621D9200223D
:105370001E921F92FCF742FD109A342011900121D9
:10538000FDF7F8FD1198FDF7EBFD3FE1219800686E
:1053900045F20001C4F20001884253D1FFE7FFE764
:1053A00041F21C00C4F20200016841F48011016066
:1053B000006800F480101A901A98FFE7FFE741F2A6
:1053C0001800C4F20200016841F010010160006899
:1053D00000F0100019901998FFE7FFE741F218005C
:1053E000C4F20200016841F020010160006800F091
:1053F000200018901898FFE74FF480501D9002206D
:105400000C901E900320209041F20000C4F2010095
:105410001DA90B91FCF7F2FC0B9904201D900020B4
:105420001E901F9041F20040C4F20100FCF7E6FC20
:105430000C9A35200D900121FDF79CFD0D98FDF78C
:105440008FFDE2E02198006843F60001C4F20101FB
:10545000884242D1FFE7FFE741F21800C4F20200A0
:10546000016841F480410160006800F480401790B9
:105470001798FFE7FFE741F21800C4F20200016845
:1054800041F004010160006800F0040016901698D5
:10549000FFE74FF400701D9002201E900320209023
:1054A00040F60000C4F2010008901DA90991FCF724
:1054B000A5FC089809994FF480621D9200221E9263
:1054C0001F92FCF79BFC25200A9001221146FDF754
:1054D00051FD0A98FDF744FD96E02198006844F2DA
:1054E0000041C4F20001884240D1FFE7FFE741F2EA
:1054F0001C00C4F20200016841F400310160006840
:1055000000F4003015901598FFE7FFE741F218000E
:10551000C4F20200016841F004010160006800F07B
:10552000040014901498FFE704201D9002201E90A0
:105530000320209040F60000C4F2010005901DA950
:105540000691FCF75BFC0598069908221D92002243
:105550001E921F92FCF752FC262007900122114652
:10556000FDF708FD0798FDF7FBFC4CE0219800686B
:1055700044F60001C4F20001884243D1FFE7FFE78F
:1055800041F21C00C4F20200016841F48021016074
:10559000006800F4802013901398FFE7FFE741F2C2
:1055A0001800C4F20200016841F0080101600068BF
:1055B00000F0080012901298FFE74FF480601D90F1
:1055C00002201E900320209040F60040C4F201000B
:1055D00001901DA90291FCF711FC019802994FF46A
:1055E00000621D92002203921E921F92FCF706FC9D
:1055F000039A272004900121FDF7BCFC0498FDF7D5
:10560000AFFCFFE7FFE7FFE7FFE7FFE722B080BD62
:1056100084B002900191ADF80220029890F83A000F
:1056200020284AD1FFE7019820B1FFE7BDF802002A
:1056300020B9FFE701208DF80F0042E0FFE7029854
:1056400090F83800012804D1FFE702208DF80F0000
:1056500037E00299012081F83800FFE7FFE7019861
:1056600002998862BDF8020002998885BDF802009F
:105670000299C88502990020C8630299222081F806
:105680003A00FFE70299002081F83800FFE702980E
:105690000168C86840F48070C86002980168486971
:1056A00040F00100486102980168C86840F020009D
:1056B000C86000208DF80F0003E002208DF80F0075
:1056C000FFE79DF80F0004B07047000080B582B07E
:1056D0000190019840F26D11C2F200010122FFF722
:1056E00097FF0198006843F60001C4F20101884267
:1056F0000ED1FFE740F29410C2F20000D0F8B420BF
:1057000040F26D10C2F200000178002090475FE087
:105710000198006844F20041C4F2000188420ED1B1
:10572000FFE740F29410C2F20000D0F8C82140F226
:105730006D10C2F2000001780120904747E0019807
:10574000006844F60001C4F2000188420ED1FFE770
:1057500040F29410C2F20000D0F8DC2240F26D104A
:10576000C2F200000178022090472FE00198006803
:1057700044F60041C4F2000188420ED1FFE740F236
:105780009410C2F20000D0F8F02340F26D10C2F283
:10579000000001780320904717E00198006845F267
:1057A0000001C4F2000188420ED1FFE740F29410DC
:1057B000C2F20000D0F8042540F26D10C2F20000E1
:1057C000017804209047FFE7FFE7FFE7FFE7FFE7E7
:1057D00002B080BD80B588B006900591ADF812206A
:1057E000039300200190069890F83900202840F09B
:1057F0009980FFE7059820B1FFE7BDF8120020B9B6
:10580000FFE701208DF81F0090E0FFE7069890F871
:105810003800012804D1FFE702208DF81F0085E041
:105820000699012081F83800FFE7FFE7069900207C
:10583000C8630699212081F83900FCF7BDFC01906E
:10584000BDF8120006998884BDF812000699C88434
:10585000FFE70698C08C002847D0FFE70699C88C60
:105860000138C88406988068B0F5805F25D1FFE7CD
:105870000698019B03996A4611608021002203F07B
:105880003FF820B1FFE703208DF81F004EE0059898
:105890000290029800886FF35F20069909684860BB
:1058A0000698006920B9FFE705980230059003E0EB
:1058B000059801300590FFE716E00698019B0399D3
:1058C0006A4611608021002203F01AF820B1FFE738
:1058D00003208DF81F0029E00598411C05910078F0
:1058E000069909684860FFE7B3E70698019B0399AA
:1058F0006A4611604021002203F002F820B1FFE760
:1059000003208DF81F0011E00699202081F839004E
:10591000FFE70699002081F83800FFE700208DF8A6
:105920001F0003E002208DF81F00FFE79DF81F0015
:1059300008B080BD84B002900191ADF802200298B9
:1059400090F8390020283ED1FFE7019820B1FFE709
:10595000BDF8020020B9FFE701208DF80F0036E006
:10596000FFE7029890F83800012804D1FFE70220F1
:105970008DF80F002BE00299012081F83800FFE735
:10598000FFE7019802990862BDF802000299888435
:10599000BDF802000299C88402990020C8630299E8
:1059A000212081F83900FFE70299002081F83800B2
:1059B000FFE702980168C86840F08000C8600020D6
:1059C0008DF80F0003E002208DF80F00FFE79DF82F
:1059D0000F0004B07047000080B582B001900198BC
:1059E000006843F60001C4F20101884207D1FFE7D5
:1059F00040F29410C2F2000004F0D4FF4EE001988F
:105A0000006844F20041C4F2000188420CD1FFE773
:105A100040F29410C2F2000000F58A7004F0C2FF58
:105A2000002004F0AFFC38E00198006844F6000163
:105A3000C4F20001884209D1FFE740F29410C2F29B
:105A4000000000F50A7004F0ADFF25E00198006841
:105A500044F60041C4F20001884209D1FFE740F258
:105A60009410C2F2000000F54F7004F09BFF12E0AA
:105A70000198006845F20001C4F20001884209D192
:105A8000FFE740F29410C2F2000000F58A6004F0D3
:105A900089FFFFE7FFE7FFE7FFE7FFE702B080BD11
:105AA000FFE7FEE780B541F26440C2F20000FCF778
:105AB00095FB80BD80B582B001900198406A00904E
:105AC00000980168086820F4806008600099002050
:105AD00048850099496B48630099896B4863009831
